:020000040800F2
:100000000080012069030008B9030008B903000853
:10001000B9030008B9030008B90300080000000094
:10002000000000000000000000000000B90300080C
:10003000B903000800000000B9030008B903000874
:1000400000000000B9030008B9030008B903000864
:10005000B9030008B9030008B9030008B903000890
:10006000B9030008B9030008B9030008B903000880
:10007000B9030008B9030008B9030008B903000870
:10008000B9030008B9030008B90300080000000024
:10009000000000000000000000000000B90300089C
:1000A000B9030008B9030008B9030008B903000840
:1000B000B9030008B9030008B9030008B903000830
:1000C000B9030008B9030008B9030008B903000820
:1000D000B9030008B9030008B903000800000000D4
:1000E000B9030008B9030008B903000800000000C4
:1000F000000000000000000000000000B90300083C
:1001000000000000B9030008B9030008B9030008A3
:1001100000000000000000000000000000000000DF
:10012000B9030008B9030008B9030008B9030008BF
:10013000B9030008000000000000000000000000FB
:10014000000000000000000000000000B9030008EB
:10015000B9030008B9030008B9030008B90300088F
:10016000B9030008B9030008000000000000000007
:10017000000000000000000000000000000000007F
:10018000000000000000000000000000000000006F
:04019000B9030008A7
:1001940010B5054C237833B9044B13B10448AFF3BD
:1001A40000800123237010BD000000200000000027
:1001B4000404000808B5034B1BB103490348AFF31B
:1001C400008008BD000000000400002004040008B2
:1001D40080B483B000AF4FF47A737B60134A7B68BA
:1001E400B2FBF3F3013B3B60114B5B6C104A43F0F1
:1001F400010353640F4B9A6A0E493B6813438B62A5
:100204000C4B4FF6FF72DA620A4B1B68094A43F043
:1002140001031360074B1B68064A23F010031360A5
:1002240000BF0C37BD465DF8047B70470024F40022
:10023400003802400000014080B483B000AF786011
:10024400074B00225A6200BF054B5A6A7B689A42E8
:10025400FAD300BF00BF0C37BD465DF8047B70477E
:100264000000014080B400AF184B1B68174A43F0EC
:100274000103136000BF154B1B6803F00203002B3E
:10028400F9D0134B1B68124A43F400431360114B1B
:100294001B68104A43F4E06343F0050313600B4BFF
:1002A4000A4A9B68936000BF084B9B6803F00403F1
:1002B400002BF9D1054B9B6803F00803002BF3D105
:1002C40000BF00BFBD465DF8047B704700380240A4
:1002D40000700040003C024080B500AFFFF7C2FF51
:1002E40000F01CF8FFF774FF0B4B5B6903F4005339
:1002F400002B06D1084B5B69074A43F40053536152
:1003040005E0054B5B69044A23F4005353614FF441
:10031400FA70FFF791FFE7E7000C024080B400AFEA
:100324000E4B1B6B0D4A43F0080313630C4B1B6805
:100334000B4A43F080631360094B1B68084A23F09F
:1003440000631360064B5B68054A23F40053536053
:1003540000BFBD465DF8047B704700BF0038024013
:10036400000C02400D488546AFF300800C480D494F
:100374000D4A002302E0D458C4500433C4188C42FC
:10038400F9D30A4A0A4C002301E013600432A24262
:10039400FBD300F011F8FFF79FFFFEE70080012078
:1003A40000000020000000202404000800000020B9
:1003B4001C000020FEE7000070B50D4D0D4C641BC1
:1003C400A4100026A64209D10B4D0C4C00F018F8DD
:1003D400641BA4100026A64205D170BD55F8043B49
:1003E40098470136EEE755F8043B98470136F2E7A3
:1003F4001C0400081C0400081C0400082004000855
:10040400F8B500BFF8BC08BC9E467047F8B500BFFD
:08041400F8BC08BC9E467047CD
:04041C00B90100081A
:04042000950100083A
:040000050800036983
:00000001FF
